:020000040800F2
:10000000001200204D020008413A00083134000877
:100010003D3A0008A9040008F14E00080000000065
:100020000000000000000000000000007D4000080B
:100030006909000800000000B13A0008D540000836
:1000400067020008670200086702000867020008EC
:1000500067020008670200086702000867020008DC
:1000600067020008670200086702000867020008CC
:1000700067020008670200086702000867020008BC
:1000800067020008670200086702000867020008AC
:10009000670200086702000867020008670200089C
:1000A000670200086702000867020008670200088C
:1000B000670200086702000867020008670200087C
:1000C000670200086702000867020008670200086C
:1000D00067020008954E00086702000867020008E2
:1000E000670200086702000867020008670200084C
:1000F000670200086702000867020008670200083C
:10010000670200086702000867020008670200082B
:10011000670200086702000867020008670200081B
:1001200067020008610700087107000881070008DE
:1001300091070008670200086702000867020008CC
:1001400067020008670200086702000867020008EB
:10015000A1070008B1070008C107000867020008EE
:1001600067020008670200086702000867020008CB
:10017000670200086702000867020008000000002C
:1001800067020008670200086702000867020008AB
:10019000670200086702000867020008670200089B
:1001A00000000000000000006702000800F002F8F4
:1001B00000F03CF80AA090E8000C82448344AAF1C5
:1001C0000107DA4501D100F031F8AFF2090EBAE8C3
:1001D0000F0013F0010F18BFFB1A43F0010318477B
:1001E000785D0000985D0000103A24BF78C878C19F
:1001F000FAD8520724BF30C830C144BF04680C602D
:10020000704700000023002400250026103A28BF74
:1002100078C1FBD8520728BF30C148BF0B60704778
:100220001FB505F093FA1FBD10B510BD00F002F91F
:100230001146FFF7F5FF05F0BFF900F020F903B410
:10024000FFF7F2FF03BC00F027F9000009488047E0
:1002500009480047FEE7FEE7FEE7FEE7FEE7FEE7A8
:10026000FEE7FEE7FEE7FEE704480549054A064BC0
:1002700070470000A9410008AD010008000C0020F3
:1002800000120020000E0020000E002053EA020C95
:1002900000F069802DE9F04B4FF00006002B1FBFE6
:1002A000B3FA83F503FA05F424FA05F65E4012BFAB
:1002B0001643B2FA82F502FA05F4C5F120051EBF15
:1002C00022FA05FC44EA0C04203556EA044C4FEAB5
:1002D000144418BF641C4FF000084FF0000990420E
:1002E00071EB030C39D3002919BFB1FA81F701FA78
:1002F00007F6B0FA80F700FA07F6C7F120071EBF2D
:1003000020FA07FC46EA0C062037B6FBF4FCA7EB04
:100310000507103F07F01F0BCBF120062CFA06F65D
:100320000CFA0BFB44BFB3460026202FA4BF5E4649
:100330004FF0000B5BEA060C08BF4FF0010B19EB06
:100340000B0948EB0608ABFB027C06FB02CC0BFB5F
:1003500003CCC01B71EB0C01C1E70B4602464146C2
:100360004846BDE8F08B13B5084318BF4FF0FF3087
:100370000146AFF30080BDE81C40704710B5203A3D
:10038000C0F00B80B1E81850A0E81850B1E8185040
:10039000A0E81850203ABFF4F5AF5FEA027C24BF12
:1003A000B1E81850A0E8185044BF18C918C0BDE8FB
:1003B00010405FEA827C24BF51F8043B40F8043BC4
:1003C00008BF7047D20728BF31F8023B48BF11F879
:1003D000012B28BF20F8023B48BF00F8012B7047D3
:1003E0004FF0000200B5134694469646203922BFCE
:1003F000A0E80C50A0E80C50B1F12001BFF4F7AF19
:10040000090728BFA0E80C5048BF0CC05DF804EBFA
:10041000890028BF40F8042B08BF704748BF20F868
:10042000022B11F0804F18BF00F8012B7047704766
:1004300070477047754600F02BF8AE4605006946D8
:10044000534620F00700854618B020B5FFF70CFF93
:10045000BDE820404FF000064FF000074FF00008C5
:100460004FF0000BAC46ACE8C009ACE8C009ACE802
:10047000C009ACE8C00921F007018D46704710B5EE
:100480000446AFF300802046BDE81040FFF7D7BE1A
:10049000004870471000002001491820ABBEFEE75D
:1004A0002600020070470000FFE7FEE780B592B02B
:1004B00040F65000C2F20000007808B9FFE7F2E011
:1004C00040F6C830C2F20000807801286BD1FFE707
:1004D00040F60040C4F202004FF4804100220F9227
:1004E00000F0F4FF0F9A41F20000C4F202000E90F7
:1004F0004FF4805100F0EAFF0E980F9A402100F06F
:10050000E5FF0F981190FFE71198B0F5C07F0DDA65
:10051000FFE7119A40F27C01C2F20001002041F88D
:100520002200FFE7119801301190EDE740F2000141
:10053000C2F200010A9102200890087004F0F0FE57
:1005400046200B9000F0A8FD40F6C831C2F2000131
:100550000C9100200990887040F60040C4F202001F
:100560004FF4004101220D9200F0B0FF08990D9A5E
:1005700040F20040C4F2020000F0A8FF099A40F6E1
:100580000000C4F20200082100F0A0FF0A99032035
:100590000870102003F030FB0B9800F07DFD0C99E3
:1005A0000D98C87072E040F6C830C2F20000C07802
:1005B00001286AD1FFE740F60040C4F202004FF480
:1005C00000410022079200F081FF079A40F20040AC
:1005D000C4F20200022100F079FF079A40F6000001
:1005E000C4F20200082100F071FF07981090FFE7A5
:1005F0001098B0F5C07F0DDAFFE7109A40F27C0149
:10060000C2F20001002041F82200FFE710980130FB
:100610001090EDE740F20001C2F2000103910320C7
:10062000087004F07DFE4620049000F035FD40F691
:10063000C831C2F20001059100200290C87040F656
:100640000040C4F202004FF480410122069200F003
:100650003DFF069A41F20000C4F2020001904FF4FF
:10066000805100F033FF0198029A402100F02EFFE4
:10067000039902200870102003F0BEFA049800F0DD
:100680000BFD059906988870FFE7FFE740F65000DC
:10069000C2F200000078022805D1FFE740F6FC0016
:1006A00000F0FAFCFFE712B080BD000080B588B012
:1006B00040F6E430C2F200000078014607910328BA
:1006C0004AD80799DFE801F00214253641F60040C8
:1006D000C4F2020005904FF400610022069200F07F
:1006E000F5FE0598069A4FF4805100F0EFFE34E0D5
:1006F00041F60040C4F2020004904FF40061012270
:1007000000F0E4FE04984FF48051002200F0DEFE79
:1007100023E041F60040C4F2020003904FF4006170
:10072000002200F0D3FE03984FF48051012200F024
:10073000CDFE12E041F60040C4F2020001904FF4F9
:1007400000610122029200F0C1FE0198029A4FF46A
:10075000805100F0BBFE00E0FFE708B080BD000064
:1007600080B540F65400C2F2000000F0EBF980BD05
:1007700080B540F6B400C2F2000000F0E3F980BD9D
:1007800080B540F6D410C2F2000000F0DBF980BD65
:1007900080B540F67410C2F2000000F0D3F980BDBD
:1007A00080B540F69420C2F2000000F0CBF980BD85
:1007B00080B540F61410C2F2000000F0C3F980BD0D
:1007C00080B540F63420C2F2000000F0BBF980BDD5
:1007D00082B001900198007810384AF6AB21CAF631
:1007E000AA21A0FB011000090090009945F27E703B
:1007F000C0F60000405C0199C8650098042807D342
:10080000FFE701990868042262F30900886506E0A1
:100810000199086840F2FF3290438865FFE701982C
:10082000806D02B07047000086B0059000208DF802
:1008300013000598806A03900598806910BBFFE754
:100840000398029003281BD80299DFE801F0020DFB
:100850000218059890F82F00C00720B1FFE701208B
:100860008DF81300FFE70CE00598C06AB0F1C07F77
:1008700004D1FFE701208DF81300FFE701E000E05D
:10088000FFE745E005988069B0F5005F25D1FFE7F7
:100890000398019003281ED80199DFE801F00206B1
:1008A000021101208DF8130016E0059890F82F0032
:1008B000C00720B1FFE701208DF81300FFE70BE030
:1008C0000598C06AB0F1C07F04D1FFE701208DF820
:1008D0001300FFE700E0FFE719E00398009003280A
:1008E00004D3FFE70098032804D00EE001208DF820
:1008F00013000BE0059890F82F00C00720B1FFE728
:1009000001208DF81300FFE700E0FFE7FFE7FFE7B6
:100910009DF8130006B0704784B0039002910192D5
:10092000009303980168086820F48020086000980C
:1009300003990968486003988068402809D1FFE757
:100940000198039909688860029803990968C8604A
:1009500008E002980399096888600198039909687A
:10096000C860FFE704B070477047000081B0EFF344
:10097000108072B60090FFE7FEE7000080B582B0FD
:1009800004F0B8FA00208DF80700FFE79DF8070093
:10099000042816DCFFE79DF8072040F27001C2F240
:1009A0000001002088549DF8072040F6C831C2F2AB
:1009B00000018854FFE79DF8070001308DF807001B
:1009C000E4E700200090FFE70098B0F5C07F0EDA62
:1009D000FFE7009A40F27C01C2F200014FF4801060
:1009E00041F82200FFE7009801300090ECE740F268
:1009F0000001C2F200010420087004F091FC6420A0
:100A000000F04AFB40F6C831C2F200010120C87074
:100A100002B080BD80B584B002900298806D0190D4
:100A200000F06CFD0090029890F8350002280DD07F
:100A3000FFE7029980204865FFE70299002081F8CE
:100A40003400FFE701208DF80F0055E0029801689F
:100A5000086820F01600086002980168486920F0D4
:100A6000800048610298006C20B9FFE70298806C12
:100A700038B1FFE702980168086820F008000860B4
:100A8000FFE702980168086820F001000860FFE7AE
:100A9000029800680068C007C8B1FFE700F02EFDAB
:100AA0000099401A062811D3FFE7029920204865D3
:100AB0000299032081F83500FFE70299002081F8B0
:100AC0003400FFE703208DF80F0015E0E0E70298FF
:100AD000C16D3F208840019988600299012081F80A
:100AE0003500FFE70299002081F83400FFE7FFE7B7
:100AF00000208DF80F00FFE79DF80F0004B080BDC7
:100B000082B00090009890F83500022807D0FFE7E7
:100B100000998020486501208DF807000EE00099BB
:100B2000052081F8350000980168086820F0010070
:100B30000860FFE700208DF80700FFE79DF8070039
:100B400002B0704780B586B005900020039040F257
:100B50000400C2F20000006848F2B511C1F64E313F
:100B6000A0FB0110800A02900598806D0190019809
:100B70000068049004980599C96DC84000070028D2
:100B80001AD5FFE70598006800684007002812D5CD
:100B9000FFE705980168086820F0040008600598E0
:100BA000C16D08208840019988600599486D40F022
:100BB00001004865FFE7FFE704980599C96DC84043
:100BC000C007A0B1FFE7059800684069000600284B
:100BD0000CD5FFE70598C16D012088400199886018
:100BE0000599486D40F002004865FFE7FFE704986B
:100BF0000599C96DC8404007002814D5FFE705983E
:100C000000680068800700280CD5FFE70598C16DD3
:100C100004208840019988600599486D40F00400DF
:100C20004865FFE7FFE704980599C96DC840C0060D
:100C3000002847D5FFE705980068006800070028EE
:100C40003FD5FFE70598C16D102088400199886065
:100C5000059800680068400300281AD5FFE705984A
:100C6000006800680003002809D4FFE70598006CBD
:100C700020B1FFE70598016C8847FFE708E0059879
:100C8000806C20B1FFE70598816C8847FFE7FFE79C
:100C900016E0059800680068C005002807D4FFE743
:100CA00005980168086820F008000860FFE70598CB
:100CB000006C20B1FFE70598016C8847FFE7FFE76C
:100CC000FFE7FFE704980599C96DC8408006002832
:100CD00040F18D80FFE7059800680068C006002895
:100CE00040F18480FFE70598C16D2020884001997C
:100CF0008860059890F83500052834D1FFE70598FD
:100D00000168086820F016000860059801684869C5
:100D100020F0800048610598006C20B9FFE7059835
:100D2000806C38B1FFE705980168086820F008007A
:100D30000860FFE70598C16D3F20884001998860F1
:100D40000599012081F83500FFE70599002081F819
:100D50003400FFE70598006D20B1FFE70598016DAD
:100D60008847FFE77BE0059800680068400300289B
:100D70001AD5FFE70598006800680003002809D429
:100D8000FFE70598406C20B1FFE70598416C884764
:100D9000FFE708E00598C06B20B1FFE70598C16B3D
:100DA0008847FFE7FFE720E0059800680068C00576
:100DB000002811D4FFE705980168086820F01000AA
:100DC00008600599012081F83500FFE705990020AA
:100DD00081F83400FFE7FFE70598C06B20B1FFE71B
:100DE0000598C16B8847FFE7FFE7FFE7FFE7059836
:100DF000406DA0B3FFE70598406DC00730B3FFE733
:100E00000599052081F8350005980168086820F0EB
:100E100001000860FFE703980130039002998842BF
:100E200001D9FFE707E0FFE7059800680068C00701
:100E30000028F0D1FFE70599012081F83500FFE790
:100E40000599002081F83400FFE7FFE70598C06CA2
:100E500020B1FFE70598C16C8847FFE7FFE706B0C0
:100E600080BD000080B586B004900020039000F0A3
:100E700045FB0290049820B9FFE701208DF8170088
:100E8000A3E00498406A08B1FFE7FFE70499022055
:100E900081F83500FFE70499002081F83400FFE76E
:100EA00004980168086820F001000860FFE70498D2
:100EB00000680068C00790B1FFE700F01FFB0299CF
:100EC000401A06280AD3FFE70499202048650499B0
:100ED000032081F835008DF8170076E0E7E70498E5
:100EE000006800680390039848F23F01CFF21001B8
:100EF00008400390049900914868D1F808C0CB6875
:100F00000A6940EA0C00184310434A6910438A6991
:100F10001043CA691043096A0143039808430390C8
:100F20000498406A042808D1FFE70499C86A096B4D
:100F30000143039808430390FFE703980499096865
:100F400008600498006840690390039820F0070047
:100F500003900498416A0398084303900498406AF8
:100F600004281AD1FFE70498816A03980843039084
:100F70000498C06A80B1FFE70498FFF755FC50B1B0
:100F8000FFE70499402048650499012081F8350065
:100F90008DF8170019E0FFE7FFE703980499096847
:100FA00048610498FFF714FC01900498C16D3F203C
:100FB000884001998860049900204865049A0121BD
:100FC00082F835108DF81700FFE79DF8170006B07E
:100FD00080BD000080B588B006900591049203930F
:100FE00000208DF80B000698806D0190FFE70698B1
:100FF00090F83400012804D1FFE702208DF81F008B
:1010000045E00699012081F83400FFE7FFE70698E4
:1010100090F8350001282BD1FFE70699022081F8CE
:10102000350006990020486506980599049A039BA7
:10103000FFF772FC0698C16D3F20884001998860D7
:1010400006980168086840F0160008600698006C71
:1010500038B1FFE706980168086840F008000860AA
:10106000FFE706980168086840F00100086009E0A1
:10107000FFE70699002081F83400FFE702208DF891
:101080000B00FFE79DF80B008DF81F00FFE79DF8B0
:101090001F0008B080BD000080B584B0039000F050
:1010A0002DFA0290039801900198013048B1FFE7B2
:1010B00040F20900C2F20000017801980844019052
:1010C000FFE7FFE700F01AFA0299401A01998842F7
:1010D00001D2FFE7F6E704B080BD000090B00F90AA
:1010E0000E9100200C900B900A900D90FFE70D9848
:1010F0000F2800F2E881FFE70D99012088400C904D
:101100000E9800680C9908400B900B980C99884237
:1011100040F0D481FFE70E98406800F003000128FA
:1011200007D0FFE70E98406800F0030002282FD197
:10113000FFE70F9880680A900D984100032000FA9D
:1011400001F10A9888430A900E98C0680D994900E9
:1011500000FA01F10A9808430A900A980F998860EA
:101160000F9840680A900D99012000FA01F10A9841
:1011700088430A900E984068C0F300100D9900FA59
:1011800001F10A9808430A900A980F994860FFE70E
:101190000E98406800F00300032818D0FFE70F986E
:1011A000C0680A900D984100032000FA01F10A98E6
:1011B00088430A900E9880680D99490000FA01F161
:1011C0000A9808430A900A980F99C860FFE70E989A
:1011D000406800F00300022826D1FFE70F980D9920
:1011E0006FF0030202EA51010844006A0A900D9868
:1011F00000F0070081000F2000FA01F10A988843EF
:101200000A900E9800690D9901F00701890000FA13
:1012100001F10A9808430A900A980F990D9B02EA77
:10122000530211440862FFE70F9800680A900D9876
:101230004100032000FA01F10A9888430A900E98B1
:10124000406800F003000D99490000FA01F10A9886
:1012500008430A900A980F9908600E9880798007D1
:10126000002800F02A81FFE7FFE70020099043F6FD
:101270004400C4F20200016841F48041016000684A
:1012800000F4804009900998FFE70D9820F00300D2
:1012900043F60801C4F2010140580A900D9800F08D
:1012A000030081000F2000FA01F10A9888430A9098
:1012B0000F980021C4F20201884203D1FFE7002009
:1012C00008907AE00F9840F20041C4F2020188428F
:1012D00003D1FFE7012007906CE00F9840F6000172
:1012E000C4F20201884203D1FFE7022006905EE0CB
:1012F0000F9840F60041C4F20201884203D1FFE793
:101300000320059050E00F9841F20001C4F2020161
:10131000884203D1FFE70420049042E00F9841F295
:101320000041C4F20201884203D1FFE70520039087
:1013300034E00F9841F60001C4F20201884203D163
:10134000FFE70620029026E00F9841F60041C4F224
:101350000201884203D1FFE70720019018E00F98AF
:1013600042F20001C4F20201884203D1FFE70820E3
:1013700000900AE00F9942F20042C4F202020A20F1
:10138000914208BF09200090FFE700980190FFE715
:1013900001980290FFE702980390FFE703980490FA
:1013A000FFE704980590FFE705980690FFE7069889
:1013B0000790FFE707980890FFE70898C0B20D99DB
:1013C00001F00301890000FA01F10A9808430A902C
:1013D0000A980D9921F0030143F60802C4F20102B4
:1013E000885043F60840C4F2010000680A900B9947
:1013F0000A9888430A900E988079C006002805D57F
:10140000FFE70B990A9808430A90FFE70A9843F60A
:101410000841C4F20101086043F60C40C4F2010027
:1014200000680A900B990A9888430A900E98807970
:101430008006002805D5FFE70B990A9808430A9013
:10144000FFE70A9843F60C41C4F20101086043F635
:101450000440C4F2010000680A900B990A9888437E
:101460000A900E9880798007002805D5FFE70B9930
:101470000A9808430A90FFE70A9843F60441C4F229
:101480000101086043F60040C4F2010000680A90C0
:101490000B990A9888430A900E988079C00728B162
:1014A000FFE70B990A9808430A90FFE70A9843F66A
:1014B0000041C4F201010860FFE7FFE7FFE70D9874
:1014C00001300D9013E610B07047000082B001901B
:1014D000ADF802108DF801209DF8010028B1FFE75A
:1014E000BDF802000199886105E0BDF80200000422
:1014F00001998861FFE702B07047000040F6F830BC
:10150000C2F200000068704740F20900C2F2000019
:10151000027840F6F831C2F2000108681044086011
:101520007047000080B543F60041C4F2020108682C
:1015300040F400700860086840F480600860086843
:1015400040F480700860032000F08AF80F2000F05B
:1015500005F800F03BF8002080BD000080B582B0A7
:10156000009040F20400C2F20000006840F209015D
:10157000C2F200010A784FF47A71B1FBF2F1B0FBCC
:10158000F1F000F005FE20B1FFE701208DF8070023
:1015900018E000980F280DD8FFE700994FF0FF30B2
:1015A000002200F043F8009840F20C01C2F2000162
:1015B000086003E001208DF8070003E000208DF8AB
:1015C0000700FFE79DF8070002B080BD82B0FFE78B
:1015D0000020019043F64400C4F20200016841F487
:1015E00080410160006800F4804001900198FFE7AD
:1015F000FFE70020009043F64000C4F202000168BB
:1016000041F080510160006800F080500090009827
:10161000FFE702B07047000080B582B08DF8070088
:101620009DF9070003F062FF02B080BD80B586B06F
:101630008DF81700049103920020029003F06EFFD2
:1016400002909DF91700019002980499039A02F004
:10165000F9F90146019803F069FF06B080BD00006A
:1016600080B582B00190019803F082FF02B080BD86
:1016700080B584B000200290FFE70020019043F67F
:101680004000C4F20200016841F08051016000682E
:1016900000F0805001900198FFE74021C4F20E2134
:1016A00001200860FFF72AFF0290FFE747F20400DD
:1016B000C4F20000006800F48030B0F5803F0DD027
:1016C000FFE7FFF71BFF0299401AB0F57A7F04D9B4
:1016D000FFE703208DF80F0025E0E7E74421C4F27F
:1016E0000E2101200860FFF709FF0290FFE747F293
:1016F0000400C4F20000006800F40030B0F5003FC0
:101700000DD0FFE7FFF7FAFE0299401AB0F57A7F95
:1017100004D9FFE703208DF80F0004E0E7E700207D
:101720008DF80F00FFE79DF80F0004B080BD0000AA
:1017300080B584B002900191029820B9FFE70120A2
:101740008DF80F0021E1019843F60041C4F2020137
:10175000096801F00F01884212D9FFE7019943F6A9
:101760000040C4F202000170006800F00F0001990F
:10177000884204D0FFE701208DF80F0005E1FFE764
:1017800002980078800700282AD5FFE702980078A1
:101790004007002809D5FFE743F60801C4F202011B
:1017A000086840F4E0500860FFE7029800780007FE
:1017B000002809D5FFE743F60801C4F202010868D2
:1017C00040F460400860FFE743F60801C4F20201FC
:1017D000086820F0F000029A926810430860FFE762
:1017E00002980078C00700286ED0FFE70298406892
:1017F000012811D1FFE743F60000C4F2020000689F
:1018000000F400310020B0EB514F04D1FFE701207C
:101810008DF80F00B9E02CE002984068022805D04E
:10182000FFE702984068032811D1FFE743F6000064
:10183000C4F20200006800F000710020B0EB516FAC
:1018400004D1FFE701208DF80F009EE010E043F681
:101850000000C4F20200006800F002010020B0EBBA
:10186000510F04D1FFE701208DF80F008DE0FFE755
:10187000FFE743F60801C4F20201086820F0030004
:10188000029A526810430860FFF738FE0090FFE7A5
:1018900043F60800C4F20200006800F00C00029950
:1018A0004968B0EB810F0ED0FFE7FFF727FE0099E4
:1018B000401A41F28931884204D3FFE703208DF8B2
:1018C0000F0062E0E4E7FFE7019843F60041C4F24D
:1018D0000201096801F00F01884212D2FFE7019965
:1018E00043F60040C4F202000170006800F00F00EF
:1018F0000199884204D0FFE701208DF80F0044E0F1
:10190000FFE702980078400700280CD5FFE743F670
:101910000801C4F20201086820F4E050029AD2687B
:1019200010430860FFE702980078000700280DD5F3
:10193000FFE743F60801C4F20201086820F46040A2
:10194000029A126940EAC2000860FFE700F04CF812
:1019500043F60801C4F202010968C9B20A0945F256
:101960006671C0F60001895CC84040F20401C2F211
:101970000001086040F20C00C2F200000068FFF7AE
:10198000EDFD00208DF80F00FFE79DF80F0004B07B
:1019900080BD000040F20400C2F200000068704701
:1019A00080B5FFF7F7FF43F60801C4F202010968AA
:1019B000C1F3822245F27671C0F60001895CC8400D
:1019C00080BD000080B5FFF7E5FF43F60801C4F2D3
:1019D0000201096889B24A0B45F27671C0F600012E
:1019E000895CC84080BD000080B586B000200590AD
:1019F00004900390029043F60800C4F202000068CD
:101A000000F00C000146019140B1FFE70198042865
:101A10000AD0FFE7019808280CD04FE042F20040BE
:101A2000C0F2F40002904FE041F60030C0F2B7007F
:101A3000029049E043F60400C4F20200016801F09C
:101A40003F01059100684002002813D5FFE743F6E7
:101A50000400C4F202000068C0F3881041F60031AF
:101A6000C0F2B701A0FB0101059A0023FEF70EFCAE
:101A7000049012E043F60400C4F202000068C0F3D0
:101A8000881042F20041C0F2F401A0FB0101059A66
:101A90000023FEF7FBFB0490FFE743F60400C4F2CB
:101AA0000200006800F44031022000EBD1300390C6
:101AB00004980399B0FBF1F0029005E042F2004077
:101AC000C0F2F4000290FFE7029806B080BD00006B
:101AD00080B586B00490049820B9FFE701208DF806
:101AE000170050E304980078C007002800F0A58094
:101AF000FFE743F60800C4F20200006800F00C00A3
:101B0000042813D0FFE743F60800C4F2020000687F
:101B100000F00C0008281ED1FFE743F60400C4F2D1
:101B2000020000684002002815D5FFE743F60000D8
:101B3000C4F20200006800F400310020B0EB514F05
:101B400008D0FFE70498406820B9FFE701208DF82E
:101B5000170018E370E0FFE704984068B0F5803F95
:101B600009D1FFE743F60001C4F20201086840F41E
:101B70008030086020E004984068B0F5A02F0DD1B7
:101B8000FFE743F60001C4F20201086840F4802038
:101B90000860086840F4803008600CE043F60001FB
:101BA000C4F20201086820F480300860086820F45C
:101BB00080200860FFE7FFE7FFE704984068E8B18E
:101BC000FFE7FFF79BFC0390FFE743F60000C4F23A
:101BD0000200006800F400310020B0EB514F0CD13E
:101BE000FFE7FFF78BFC0399401A652804D3FFE752
:101BF00003208DF81700C6E2E7E71CE0FFF77EFC44
:101C00000390FFE743F60000C4F20200006800F40E
:101C100000310020B0EB514F0CD0FFE7FFF76EFC16
:101C20000399401A652804D3FFE703208DF81700B5
:101C3000A9E2E7E7FFE7FFE7FFE7049800788007FE
:101C4000002840F19680FFE743F60800C4F2020046
:101C5000006810F00C0F13D0FFE743F60800C4F241
:101C60000200006800F00C0008282CD1FFE743F6C2
:101C70000400C4F2020000684002002823D4FFE7F9
:101C800043F60000C4F20200006800F002010020E8
:101C9000B0EB510F09D0FFE70498C068012804D0C9
:101CA000FFE701208DF817006DE243F60001C4F252
:101CB0000201086820F0F800049A126940EAC200A4
:101CC0000860FFE754E00498C06870B3FFE70021A4
:101CD000C4F2472101200860FFF710FC0390FFE7E2
:101CE00043F60000C4F20200006800F00201002088
:101CF000B0EB510F0CD1FFE7FFF700FC0399401A3E
:101D0000032804D3FFE703208DF817003BE2E7E741
:101D100043F60001C4F20201086820F0F800049ABA
:101D2000126940EAC200086021E00021C4F24721A4
:101D300000200860FFF7E2FB0390FFE743F6000096
:101D4000C4F20200006800F002010020B0EB510F65
:101D50000CD0FFE7FFF7D2FB0399401A032804D306
:101D6000FFE703208DF817000DE2E7E7FFE7FFE745
:101D7000FFE704980078000700284BD5FFE7049898
:101D8000406918B3FFE740F68061C4F247210120A3
:101D90000860FFF7B3FB0390FFE743F67400C4F25B
:101DA0000200006800F002010020B0EB510F0CD1DE
:101DB000FFE7FFF7A3FB0399401A032804D3FFE7CB
:101DC00003208DF81700DEE1E7E722E040F68061AE
:101DD000C4F2472100200860FFF790FB0390FFE763
:101DE00043F67400C4F20200006800F00201002013
:101DF000B0EB510F0CD0FFE7FFF780FB0399401ABF
:101E0000032804D3FFE703208DF81700BBE1E7E7C1
:101E1000FFE7FFE7049800784007002840F1CE80F4
:101E2000FFE700208DF8070043F64000C4F20200EF
:101E30000068C000002815D4FFE7FFE700200090ED
:101E400043F64000C4F20200016841F08051016095
:101E5000006800F0805000900098FFE701208DF8A6
:101E60000700FFE747F20000C4F200000068C00569
:101E7000002822D4FFE747F20001C4F200010868FD
:101E800040F480700860FFF739FB0390FFE747F2EA
:101E90000000C4F200000068C00500280CD4FFE771
:101EA000FFF72CFB0399401A032804D3FFE7032014
:101EB0008DF8170067E1EAE7FFE7FFE7049880681D
:101EC000012809D1FFE743F67001C4F20201086856
:101ED00040F0010008601FE00498806805280DD1DB
:101EE000FFE743F67001C4F20201086840F0040005
:101EF0000860086840F0010008600CE043F67001DB
:101F0000C4F20201086820F001000860086820F0AF
:101F100004000860FFE7FFE7FFE704988068F8B176
:101F2000FFE7FFF7EBFA0390FFE743F67000C4F218
:101F30000200006800F002010020B0EB510F0ED14A
:101F4000FFE7FFF7DBFA0399401A41F28931884233
:101F500004D3FFE703208DF8170014E1E5E71EE046
:101F6000FFF7CCFA0390FFE743F67000C4F20200DB
:101F7000006800F002010020B0EB510F0ED0FFE727
:101F8000FFF7BCFA0399401A41F28931884204D321
:101F9000FFE703208DF81700F5E0E5E7FFE79DF880
:101FA0000700012809D1FFE743F64001C4F202010E
:101FB000086820F080500860FFE7FFE70498806918
:101FC000002800F0DC80FFE743F60800C4F20200BE
:101FD000006800F00C00082800F08580FFE70498F6
:101FE000806902285CD1FFE76021C4F2472100200C
:101FF0000860FFF783FA0390FFE743F60000C4F29E
:102000000200006800F000710020B0EB516F0CD0AE
:10201000FFE7FFF773FA0399401A032804D3FFE799
:1020200003208DF81700AEE0E7E70499C869D1F8FE
:1020300020C04B6A8A6A40EA0C0040EA8310D2034F
:102040004FF6FF739A43A2F580321043C96A40EA03
:10205000016043F60401C4F2020108606021C4F289
:10206000472101200860FFF749FA0390FFE743F694
:102070000000C4F20200006800F000710020B0EB24
:10208000516F0CD1FFE7FFF739FA0399401A032883
:1020900004D3FFE703208DF8170074E0E7E721E0A1
:1020A0006021C4F2472100200860FFF727FA03905F
:1020B000FFE743F60000C4F20200006800F0007180
:1020C0000020B0EB516F0CD0FFE7FFF717FA039930
:1020D000401A032804D3FFE703208DF8170052E0CD
:1020E000E7E7FFE74AE004988069012804D1FFE7A9
:1020F00001208DF8170046E043F60400C4F2020008
:102100000068029004988069012831D0FFE70298A6
:1021100000F480000499C969884229D1FFE7029838
:1021200000F03F000499096A884221D1FFE7029834
:1021300047F6C07108400499496AB0EB811F17D176
:10214000FFE7029800F440300499896AC9034FF60A
:10215000FF729143A1F58031884209D1FFE70298CF
:1021600000F070600499C96AB0EB016F04D0FFE71A
:1021700001208DF8170006E0FFE7FFE7FFE70020EA
:102180008DF81700FFE79DF8170006B080BD00002E
:1021900080B582B00190019801F072FF02B080BD5D
:1021A00084B00290019100200090FFE7029890F81F
:1021B0003C00012804D1FFE702208DF80F0044E025
:1021C0000299012081F83C00FFE7FFE7009820F02A
:1021D000FF000199C96808430090009820F44070FE
:1021E0000199896808430090009820F48060019963
:1021F000496808430090009820F40060019909683C
:1022000008430090009820F4805001990969084320
:102210000090009820F4005001994969084300900B
:10222000009820F480400199C96908430090009803
:10223000029909684864FFE70299002081F83C0090
:10224000FFE700208DF80F00FFE79DF80F0004B0B6
:102250007047000085B003900291FFE7039890F863
:102260003C00012804D1FFE702208DF813007EE036
:102270000399012081F83C00FFE7FFE70399022062
:1022800081F83D0003980068406801900398006859
:1022900080680090019820F0700001900298016819
:1022A00001980843019001980399096848600398D0
:1022B00000680021C4F2010188423CD0FFE7039886
:1022C0000068B0F1804F36D0FFE70398006840F215
:1022D0000041C4F2000188422DD0FFE70398006856
:1022E00040F60001C4F20001884224D0FFE70398C1
:1022F000006840F60041C4F2000188421BD0FFE7AD
:102300000398006840F20041C4F20101884212D0F3
:10231000FFE70398006844F20001C4F2010188421B
:1023200009D0FFE70398006841F60001C4F20001FC
:1023300088420ED1FFE7009820F0800000900298BC
:1023400041680098084300900098039909688860E4
:10235000FFE70399012081F83D00FFE70399002082
:1023600081F83C00FFE700208DF81300FFE79DF89F
:10237000130005B07047000080B582B0009000984F
:1023800020B9FFE701208DF807003FE0009890F8A2
:102390003D0040B9FFE70099002081F83C0000981B
:1023A00000F038F8FFE70099022081F83D0000991D
:1023B00051F8040B01F002FF0099012081F846005A
:1023C000FFE70099012081F83E00009981F83F0065
:1023D000009981F84000009981F84100FFE7FFE78C
:1023E0000099012081F84200009981F8430000998A
:1023F00081F84400009981F84500FFE70099012029
:1024000081F83D0000208DF80700FFE79DF80700E8
:1024100002B080BD80B58AB009900998006800219B
:10242000C4F20101884240F0E780FFE7FFE70020A7
:10243000089043F64400C4F20200016841F0010133
:102440000160006800F0010008900898FFE740F67E
:102450005400C2F20000069046F22841C4F2020184
:1024600001604FF040614160402181600021C16006
:102470004FF4806202614FF4805242614FF4804217
:102480008261C1614FF4003202624162FEF7EAFCF0
:1024900018B1FFE7FEF76AFAFFE7FFE7099840F691
:1024A0005401C2F20001416209988863FFE740F6D7
:1024B000B400C2F20000059046F24041C4F20201AD
:1024C00001604FF040614160402181600021C160A6
:1024D0004FF4806202614FF4805242614FF48042B7
:1024E0008261C1614FF4003202624162FEF7BAFCC0
:1024F00018B1FFE7FEF73AFAFFE7FFE7099840F661
:10250000B401C2F20001816209988863FFE740F6D6
:102510001410C2F20000049046F2A041C4F202017D
:1025200001604FF040614160402181600021C16045
:102530004FF4806202614FF4805242614FF4804256
:102540008261C1614FF4003202624162FEF78AFC8F
:1025500018B1FFE7FEF70AFAFFE7FFE7099840F630
:102560001411C2F20001C16209988863FFE740F6C6
:102570007410C2F20000039046F27041C4F20201EE
:1025800001604FF040614160402181600021C160E5
:102590004FF4806202614FF4805242614FF48042F6
:1025A0008261C1614FF4003202624162FEF75AFC5F
:1025B00018B1FFE7FEF7DAF9FFE7FFE7099840F601
:1025C0007411C2F20001016309988863FFE7FFE715
:1025D000099840F67411C2F200018163099888637A
:1025E000FFE7FFE7099840F67411C2F2000141636A
:1025F00009988863FFE790E00998006840F200417D
:10260000C4F20101884240F08780FFE7FFE7002025
:10261000079043F64400C4F20200016841F0020151
:102620000160006800F0020007900798FFE740F69D
:10263000D410C2F20000029046F25841C4F20201E6
:1026400001604FF060614160402181600021C16004
:102650004FF4806202614FF4805242614FF4804235
:102660008261C1614FF4003202624162FEF7FAFBFF
:1026700018B1FFE7FEF77AF9FFE7FFE7099840F6A0
:10268000D411C2F20001816209988863FFE740F625
:102690003420C2F20000019046F2B841C4F20201B7
:1026A00001604FF060614160402181600021C160A4
:1026B0004FF4806202614FF4805242614FF48042D5
:1026C0008261C1614FF4003202624162FEF7CAFBCF
:1026D00018B1FFE7FEF74AF9FFE7FFE7099840F670
:1026E0003421C2F20001016309988863FFE7FFE724
:1026F000099840F63421C2F2000181630998886389
:10270000FFE7FFE7099840F63421C2F20001416378
:1027100009988863FFE7FFE7FFE70AB080BD000084
:1027200080B586B00490039100208DF80B00FFE780
:10273000049890F83C00012804D1FFE702208DF8AE
:102740001700ABE00499012081F83C00FFE7FFE7A8
:102750000499022081F83D00049800688068019087
:10276000019820F077000190019820F47F400190BB
:10277000019804990968886003980068009000280F
:1027800072D0FFE7009810286ED0FFE7009820284D
:102790006AD0FFE70098302866D0FFE7009840280D
:1027A00055D0FFE70098502837D0FFE70098602801
:1027B00040D0FFE7009870280BD0FFE70098B0F5F5
:1027C000805F05D0FFE70098B0F5005F16D052E0BB
:1027D00055E004980068039B5A689968DB6801F02B
:1027E000BDFE0498006880680190019840F0770071
:1027F0000190019804990968886040E00498006895
:10280000039B5A689968DB6801F0A8FE0498016888
:10281000886840F48040886031E004980068039A3A
:102820005168D26802F086F804980068502101F0DF
:10283000AFFE24E004980068039A5168D26802F061
:10284000A1F804980068602101F0A2FE17E0049846
:102850000068039A5168D26802F06CF80498006826
:10286000402101F095FE0AE0049800680399096888
:1028700001F08EFE03E001208DF80B00FFE70499C4
:10288000012081F83D00FFE70499002081F83C0019
:10289000FFE79DF80B008DF81700FFE79DF8170084
:1028A00006B080BD81B0009001B0704780B58EB099
:1028B0000D9000200C900B900A90099008900D98B4
:1028C00000680021C4F20101884249D1FFE7FFE717
:1028D0000020079043F63000C4F20200016841F086
:1028E00001010160006800F0010007900798FFE710
:1028F000FFE70020069043F63000C4F202000168B2
:1029000041F010010160006800F010000690069888
:10291000FFE74FF4407008900220019009900020DA
:1029200002900A900B90012003900C900020C4F2BA
:10293000020008A90491FEF7D1FB019B029A0398BB
:1029400004994FF4C04CCDF820C009930A920B9221
:102950000C9041F20000C4F20200FEF7BFFB2BE036
:102960000D98006840F20041C4F20101884222D172
:10297000FFE7FFE70020059043F63000C4F20200B5
:10298000016841F480710160006800F48070059076
:102990000598FFE7442008900220099000200A9043
:1029A0000B9003200C9042F20000C4F2020008A930
:1029B000FEF794FBFFE7FFE70EB080BD80B586B061
:1029C00004900391029200208DF80700FFE704981D
:1029D00090F83C00012804D1FFE702208DF8170091
:1029E00089E00499012081F83C00FFE7FFE70298A5
:1029F00000900C2800F270800099DFE801F0076D6C
:102A00006D6D206D6D6D3A6D6D6D530004980068AD
:102A1000039901F0D3FD04980168886940F008002B
:102A2000886104980168886920F00400886103982F
:102A300002690498016888691043886150E004982D
:102A40000068039901F030FE04980168886940F439
:102A50000060886104980168886920F4806088615A
:102A60000398026904980168886940EA0220886135
:102A700036E004980068039901F090FE049801681C
:102A8000C86940F00800C86104980168C86920F06E
:102A90000400C8610398026904980168C86910437A
:102AA000C8611DE004980068039901F0F1FE0498E4
:102AB0000168C86940F40060C86104980168C86989
:102AC00020F48060C8610398026904980168C869AD
:102AD00040EA0220C86103E001208DF80700FFE70B
:102AE000FFE70499002081F83C00FFE79DF807000C
:102AF0008DF81700FFE79DF8170006B080BD0000B5
:102B000080B582B00090009820B9FFE701208DF8D1
:102B100007003FE0009890F83D0040B9FFE70099BA
:102B2000002081F83C00009800F038F8FFE7009999
:102B3000022081F83D00009951F8040B01F03EFBA2
:102B40000099012081F84600FFE70099012081F8F3
:102B50003E00009981F83F00009981F840000099FB
:102B600081F84100FFE7FFE70099012081F842006A
:102B7000009981F84300009981F84400009981F898
:102B80004500FFE70099012081F83D0000208DF805
:102B90000700FFE79DF8070002B080BD81B00090FC
:102BA00001B0704780B582B0019002F0EFF902B039
:102BB00080BD000081B0009001B0704780B592B038
:102BC00010900F910E92ADF8363000208DF8350040
:102BD0000F9828B9FFE7109890F83E000B901CE082
:102BE0000F98042805D1FFE7109890F83F000A904D
:102BF00010E00F98082805D1FFE7109890F84000E2
:102C0000099004E0109890F841000990FFE70998B6
:102C10000A90FFE70A980B90FFE70B98022804D16F
:102C2000FFE702208DF84700B1E10F9828B9FFE7D0
:102C3000109890F83E0008901CE00F98042805D1E9
:102C4000FFE7109890F83F00079010E00F980828D1
:102C500005D1FFE7109890F84000069004E0109826
:102C600090F841000690FFE706980790FFE7079865
:102C70000890FFE70898012834D1FFE70E9840B983
:102C8000FFE7BDF8360020B1FFE701208DF84700CF
:102C90007DE10F9828B9FFE71099022081F83E00E6
:102CA0001EE00F98042806D1FFE71099022081F852
:102CB0003F00059012E00F98082806D1FFE7109911
:102CC000022081F84000049005E01099022081F86C
:102CD00041000490FFE704980590FFE70598FFE79F
:102CE000FFE703E001208DF8470050E1FFE70F9870
:102CF00003900C2800F2B6800399DFE801F007B3D7
:102D0000B3B332B3B3B35DB3B3B388001098416AC1
:102D100044F29130C0F60000C8631098416A44F252
:102D20004D40C0F6000008641098416A44F2C1406A
:102D3000C0F60000C86410980268406A0E993432E8
:102D4000BDF83630FEF746F920B1FFE701208DF8D7
:102D500047001CE110980168C86840F40070C86022
:102D600084E01098816A44F29130C0F60000C86394
:102D70001098816A44F24D40C0F600000864109833
:102D8000816A44F2C140C0F60000C864109802682D
:102D9000806A0E993832BDF83630FEF71BF920B143
:102DA000FFE701208DF84700F1E010980168C8683E
:102DB00040F48060C86059E01098C16A44F29130D4
:102DC000C0F60000C8631098C16A44F24D40C0F6D6
:102DD000000008641098C16A44F2C140C0F60000C7
:102DE000C86410980268C06A0E993C32BDF836304B
:102DF000FEF7F0F820B1FFE701208DF84700C6E0AC
:102E000010980168C86840F40060C8602EE010980F
:102E1000016B44F29130C0F60000C8631098016B5A
:102E200044F24D40C0F6000008641098016B44F273
:102E3000C140C0F60000C86410980268006B0E998B
:102E40004032BDF83630FEF7C5F820B1FFE701206B
:102E50008DF847009BE010980168C86840F48050E6
:102E6000C86003E001208DF83500FFE79DF83500CC
:102E7000002840F08780FFE7109800680F99012232
:102E8000019201F069FA0198109909680022C4F2D0
:102E90000102914202900CD0FFE7109800684FF6B3
:102EA0000041CBF6FE710844B0FA80F04009029070
:102EB000FFE70298C00738B1FFE710980168486C37
:102EC00040F400404864FFE7109800680021C4F215
:102ED000010188423CD0FFE710980068B0F1804FB4
:102EE00036D0FFE71098006840F20041C4F20001BC
:102EF00088422DD0FFE71098006840F60001C4F228
:102F00000001884224D0FFE71098006840F6004195
:102F1000C4F2000188421BD0FFE71098006840F21D
:102F20000041C4F20101884212D0FFE71098006806
:102F300044F20001C4F20101884209D0FFE7109871
:102F4000006841F60001C4F20001884212D1FFE797
:102F500010980068806800F007000C900C98062814
:102F600007D0FFE710980168086840F0010008608A
:102F7000FFE706E010980168086840F0010008606B
:102F8000FFE7FFE79DF835008DF84700FFE79DF864
:102F9000470012B080BD000080B588B00790069150
:102FA00000208DF81700069804900C2835D8049955
:102FB000DFE801F007333333123333331D33333358
:102FC000280007980168C86820F40070C860079856
:102FD000406AFDF795FD24E007980168C86820F471
:102FE0008060C8600798806AFDF78AFD19E007983D
:102FF0000168C86820F40060C8600798C06AFDF7DF
:103000007FFD0EE007980168C86820F48050C86012
:103010000798006BFDF774FD03E001208DF81700A1
:10302000FFE79DF8170000287DD1FFE707980068AB
:103030000699002201F090F907980168012000220A
:10304000C4F20102914203900CD0FFE70798006898
:103050004FF60041CBF6FE710844B0FA80F040090B
:103060000390FFE70398C007D8B1FFE7FFE7079891
:103070000068006A41F21111084210D1FFE7079879
:103080000068006A40F24441084207D1FFE7079810
:103090000168486C20F400404864FFE7FFE7FFE761
:1030A000FFE7FFE707980068006A41F21111084244
:1030B00010D1FFE707980068006A40F244410842D7
:1030C00007D1FFE707980168086820F00100086051
:1030D000FFE7FFE7FFE7069828B9FFE70799012018
:1030E00081F83E001EE00698042806D1FFE7079904
:1030F000012081F83F00029012E00698082806D1CE
:10310000FFE70799012081F84000019005E0079949
:10311000012081F841000190FFE701980290FFE74C
:103120000298FFE7FFE79DF8170008B080BD000098
:1031300082B00190ADF8021002B0704780B584B043
:10314000039000200290039800684069C0B2C00953
:103150000290039890F83D00212823D1FFE70298C0
:1031600000B3FFE7FFE7FFE70398006850E8050FAB
:1031700020F080000190FFE701990398026842E87F
:1031800005100028F0D1FFE7FFE70398406B28B156
:10319000FFE70398406BFDF73DFCFFE7039801F064
:1031A00033FDFFE7039800684069C0F38010029088
:1031B000039890F83E00222823D1FFE7029800B33D
:1031C000FFE7FFE7FFE70398006850E8050F20F0EE
:1031D00040000090FFE700990398026842E805105C
:1031E0000028F0D1FFE7FFE70398806B28B1FFE7E5
:1031F0000398806BFDF70EFCFFE7039801F0BAFC23
:10320000FFE7002004B080BD81B0009001B070479E
:1032100080B582B00090009820B9FFE701208DF8BA
:1032200007003EE00098806908B1FFE700E0FFE793
:10323000009890F83D0040B9FFE70099002081F820
:103240003C00009800F032F8FFE70099242081F854
:103250003D0000980168C86820F40050C8600098DC
:1032600001F0EEFC00980168086920F490400861C4
:1032700000980168486920F02A00486100980168B8
:10328000C86840F40050C860009900200864009AA3
:10329000202182F83D10009A82F83E108DF8070038
:1032A000FFE79DF8070002B080BD000080B58CB03C
:1032B0000B9000200A9009900890079006900B98B8
:1032C000006841F20001C4F20101884269D1FFE7C0
:1032D000FFE70020059043F64400C4F202000168B5
:1032E00041F010010160006800F0100005900598A1
:1032F000FFE7FFE70020049043F63000C4F202002D
:10330000016841F002010160006800F002000490D1
:103310000498FFE7C020069002200790002002904A
:1033200008900320099007200A9040F20040C4F260
:10333000020006A9FDF7D2FE029940F69420C2F2DF
:103340000000039046F28842C4F2020202604FF08D
:10335000006242608160C1604FF48062026141613D
:103360008161C1614FF4403202624162FDF77AFD32
:1033700018B1FFE7FDF7FAFAFFE7FFE70B9840F611
:103380009421C2F2000181630B988863FFE7252036
:10339000019000221146FEF749F90198FEF73CF929
:1033A000FFE70CB080BD000080B584B002900191B1
:1033B000ADF80220029890F83E00202828D1FFE7BF
:1033C000019820B1FFE7BDF8020020B9FFE7012016
:1033D0008DF80F0020E0FFE7029890F83C000128EC
:1033E00004D1FFE702208DF80F0015E002990120BB
:1033F00081F83C00FFE7FFE702990020086302988C
:103400000199BDF8022001F0B9FC8DF80F0003E02E
:1034100002208DF80F00FFE79DF80F0004B080BD7B
:1034200081B0009001B0704781B0009001B070474A
:10343000FFE7FEE780B58AB0FFE70020099043F67A
:103440003000C4F20200016841F4800101600068AC
:1034500000F4800009900998FFE7392001900022CC
:1034600007921146FEF7E2F80198FEF7D5F8079AA1
:103470003A2002901146FEF7D9F80298FEF7CCF8F0
:10348000079A3B2003901146FEF7D0F80398FEF709
:10349000C3F8079A3C2004901146FEF7C7F8049839
:1034A000FEF7BAF8079A442005901146FEF7BEF8D9
:1034B0000598FEF7B1F8079A452006901146FEF7E9
:1034C000B5F80698FEF7A8F8079A46200890114626
:1034D000FEF7ACF80898FEF79FF80AB080BD000030
:1034E00080B59CB000201B901A90199018901790EE
:1034F000FFE70020169043F63000C4F20200016896
:1035000041F001010160006800F00100169016987A
:10351000FFE7FFE70020159043F63000C4F20200F9
:10352000016841F010010160006800F01000159082
:103530001598FFE7FFE70020149043F63000C4F22F
:103540000200016841F002010160006800F0020021
:1035500014901498FFE7FFE70020139043F6300023
:10356000C4F20200016841F480710160006800F457
:10357000807013901398FFE7FFE70020129043F646
:103580003000C4F20200016841F0200101600068CF
:1035900000F0200012901298FFE7FFE70020119042
:1035A00043F63000C4F20200016841F0800101607E
:1035B000006800F0800011901198FFE7FFE70020FD
:1035C000109043F63000C4F20200016841F0080197
:1035D0000160006800F0080010901098FFE7FFE716
:1035E00000200F9043F63000C4F20200016841F061
:1035F00004010160006800F004000F900F98FFE7DD
:1036000041F20000C4F20200019041F27001009109
:1036100000220B92FDF75AFF0B9A41F20040C4F2D0
:103620000200039003210291FDF750FF0B9A41F62F
:103630000040C4F2020005904FF4E0510491FDF700
:1036400045FF0B9A40F60040C4F2020007904FF489
:1036500070410691FDF73AFF0B9A40F60000C4F264
:103660000200099019210891FDF730FF0B9A40F2F2
:103670000040C4F202000D9002210C91FDF726FFDC
:10368000009901980C9A179101210A9118911992A9
:103690001A9117A90E91FDF721FDDDF808C00398D6
:1036A0000A9A0C9B0E99CDF85CC0189219931A9245
:1036B000FDF714FDDDF810C005980A9A0C9B0E99D1
:1036C000CDF85CC0189219931A92FDF707FDDDF84A
:1036D00018C007980A9A0C9B0E99CDF85CC01892F6
:1036E00019931A92FDF7FAFCDDF820C009980A9A9E
:1036F0000C9B0E99CDF85CC0189219931A92FDF7A5
:10370000EDFC0A980B9A0C9B0E991790189319923E
:103710001A921B900020C4F20200FDF7DFFC0A9A07
:103720000C9B0D980E991793189219931A92FDF706
:10373000D5FCDDF828C00B9B0C9A0D980E99CDF89E
:103740005CC0189219931A931B92FDF7C7FC1CB02A
:1037500080BD000080B598B00021019117911691AD
:103760001591149113911291119110910F910E9145
:103770000D910C910B910A91099108910791069175
:1037800005910491039140F6F420C2F200000290EA
:103790000022C4F20102026041608160E022C26046
:1037A000016141618161FEF7E7FD18B1FFE7FDF7B7
:1037B000DDF8FFE74FF48050149040F6F420C2F299
:1037C000000014A9FEF7ACFF18B1FFE7FDF7CEF833
:1037D000FFE740F6F420C2F20000FFF791F918B1BC
:1037E000FFE7FDF7C3F8FFE700201290139040F6C3
:1037F000F420C2F2000012A9FEF72CFD18B1FFE779
:10380000FDF7B4F8FFE760200B9000220C920D92B8
:103810000E920F921092119240F6F420C2F2000024
:103820000BA9FFF7CBF818B1FFE7FDF79FF8FFE70B
:1038300040F6F420C2F200000BA90422FFF7BEF804
:1038400018B1FFE7FDF792F8FFE740F6F420C2F267
:1038500000000BA90822FFF7B1F818B1FFE7FDF748
:1038600085F8FFE740F6F420C2F200000BA90C2215
:10387000FFF7A4F818B1FFE7FDF778F8FFE700209D
:10388000039004900590069007904FF40051089122
:103890000A9040F6F420C2F2000003A9FEF780FC73
:1038A00018B1FFE7FDF762F8FFE740F6F420C2F237
:1038B0000000FEF7FBFF18B080BD000080B598B097
:1038C0000021019117911691159114911391129164
:1038D000119110910F910E910D910C910B910A91F4
:1038E000099108910791069105910491039140F681
:1038F0003C30C2F20000029040F20042C4F20102E9
:10390000026041608160E022C260016141618161C9
:10391000FEF732FD18B1FFE7FDF728F8FFE74FF497
:103920008050149040F63C30C2F2000014A9FEF71B
:10393000F7FE18B1FFE7FDF719F8FFE740F63C3056
:10394000C2F20000FFF7DCF818B1FFE7FDF70EF850
:10395000FFE700201290139040F63C30C2F20000C6
:1039600012A9FEF777FC18B1FFE7FCF7FFFFFFE7AE
:1039700060200B9000200C900D900E900F901090F6
:10398000119040F63C30C2F200000BA90422FFF770
:1039900015F818B1FFE7FCF7E9FFFFE740F63C3008
:1039A000C2F200000BA90C22FFF708F818B1FFE7DC
:1039B000FCF7DCFFFFE700200390049005900690E1
:1039C00007904FF4005108910A9040F63C30C2F243
:1039D000000003A9FEF7E4FB18B1FFE7FCF7C6FF00
:1039E000FFE740F63C30C2F20000FEF75FFF18B080
:1039F00080BD000080B582B040F68430C2F2000085
:103A0000019041F20001C4F20101016048F2A0619D
:103A1000C0F20101416000218160C1604FF4806209
:103A20000261042242618161C161FFF7F1FB18B1BB
:103A3000FFE7FCF79BFFFFE702B080BDFFE7FEE773
:103A4000FFE7FEE788B0079006910592079800F01F
:103A5000070004900498C0F10700052803D3FFE78E
:103A60000420019004E00498C0F107000190FFE7F2
:103A70000198039004980430062803D8FFE700203B
:103A8000009003E0049803380090FFE7009802904C
:103A900006980399012202FA01F101390840029BBC
:103AA000984005999A40013A1140084308B0704780
:103AB0007047000081B040F27800C2F20000006858
:103AC000C07A02280CD1FFE740F65001C2F2000193
:103AD0000220087040F20801C2F20001087042E0C2
:103AE00040F20800C2F20000007840F27801C2F211
:103AF00000010968C97A88421ED0FFE740F65001EC
:103B0000C2F200010120087040F27800C2F2000009
:103B10000068C07A012807D1FFE740F20801C2F22D
:103B200000010120087006E040F20801C2F2000125
:103B300003200870FFE715E040F20800C2F2000021
:103B4000007840F27801C2F200010968C97A88421F
:103B500007D1FFE740F65001C2F2000100200870D3
:103B6000FFE7FFE7FFE740F27800C2F200000068DD
:103B7000807A01460091012808D0FFE700980228CA
:103B800030D0FFE70098032807D032E040F6E43158
:103B9000C2F20001002008702CE040F27800C2F26E
:103BA00000000068B0F90800012807DBFFE740F6D5
:103BB000E431C2F200010120087012E040F2780006
:103BC000C2F200000068B0F90800B0F1FF3F07DC66
:103BD000FFE740F6E431C2F2000102200870FFE77F
:103BE000FFE707E040F6E431C2F20001032008706D
:103BF00000E0FFE701B0704780B5C6B08DF817014F
:103C000005A84FF48071FCF7EBFB00200490FFE760
:103C100004983F2800F3FF81FFE704989DF81711EF
:103C2000884200F0E681FFE704989DF817110831FB
:103C3000884200F0DE81FFE704989DF817111031EB
:103C4000884200F0D681FFE704989DF817111831DB
:103C5000884200F0CE81FFE704989DF817110931E2
:103C6000884200F0C681FFE704989DF817111131D2
:103C7000884200F0BE81FFE704989DF817111931C2
:103C8000884200F0B681FFE704989DF817112131B2
:103C9000884200F0AE81FFE704989DF817111231B9
:103CA000884200F0A681FFE704989DF817111A31A9
:103CB000884200F09E81FFE704989DF81711223199
:103CC000884200F09681FFE704989DF817112A3189
:103CD000884200F08E81FFE704989DF817111B3190
:103CE000884200F08681FFE704989DF81711233180
:103CF000884200F07E81FFE704989DF817112B3170
:103D0000884200F07681FFE704989DF8171133315F
:103D1000884200F06E81FFE704989DF817111C316E
:103D2000884200F06681FFE704989DF8171124315E
:103D3000884200F05E81FFE704989DF817112C314E
:103D4000884200F05681FFE704989DF8171134313E
:103D5000884200F04E81FFE704989DF81711153155
:103D6000884200F04681FFE704989DF817111D3145
:103D7000884200F03E81FFE704989DF81711253135
:103D8000884200F03681FFE704989DF817112D3125
:103D9000884200F02E81FFE704989DF817110E313C
:103DA000884200F02681FFE704989DF8171116312C
:103DB000884200F01E81FFE704989DF817111E311C
:103DC000884200F01681FFE704989DF8171126310C
:103DD000884200F00E81FFE704989DF81711073123
:103DE000884200F00681FFE704989DF817110F3113
:103DF000884200F0FE80FFE704989DF81711173104
:103E0000884200F0F680FFE704989DF817111F31F3
:103E1000884200F0EE80FFE704989DF817114039C2
:103E2000884200F0E680FFE704989DF817113839C2
:103E3000884200F0DE80FFE704989DF817113039C2
:103E4000884200F0D680FFE704989DF817112839C2
:103E5000884200F0CE80FFE704989DF817113739AB
:103E6000884200F0C680FFE704989DF817112F39AB
:103E7000884200F0BE80FFE704989DF817112739AB
:103E8000884200F0B680FFE704989DF817111F39AB
:103E9000884200F0AE80FFE704989DF817112E3994
:103EA000884200F0A680FFE704989DF81711263994
:103EB000884200F09E80FFE704989DF817111E3994
:103EC000884200F09680FFE704989DF81711163994
:103ED000884200F08E80FFE704989DF8171125397D
:103EE000884200F08680FFE704989DF817111D397D
:103EF00088427ED0FFE704989DF817111539884253
:103F000077D0FFE704989DF817110D39884270D0DB
:103F1000FFE704989DF817112439884269D0FFE71C
:103F200004989DF817111C39884262D0FFE7049865
:103F30009DF81711143988425BD0FFE704989DF86B
:103F400017110C39884254D0FFE704989DF81711D7
:103F50002B3988424DD0FFE704989DF8171123397B
:103F6000884246D0FFE704989DF817111B39884214
:103F70003FD0FFE704989DF817111339884238D0D5
:103F8000FFE704989DF817113239884231D0FFE7D6
:103F900004989DF817112A3988422AD0FFE704981F
:103FA0009DF817112239884223D0FFE704989DF825
:103FB00017111A3988421CD0FFE704989DF8171191
:103FC0003939884215D0FFE704989DF81711313927
:103FD00088420ED0FFE704989DF8171129398842CE
:103FE00007D0FFE704989DF817112139884207D1BF
:103FF000FFE7049A05A94FF4801041F8220005E07C
:10400000049A05A9002041F82200FFE7FFE7049881
:1040100001300490FCE540F27C00C2F20000019007
:1040200005A902914FF480720392FCF7A7F9019859
:104030000299039A00F58070FCF7A0F901980299A3
:10404000039A00F50070FCF799F901980299039A18
:1040500000F54070FCF792F901980299039A00F577
:104060008060FCF78BF901980299039A00F5A06033
:10407000FCF784F901F054F946B080BD70470000A8
:1040800080B582B0009000980138B0F1807F03D3F2
:10409000FFE70120019019E0009801384EF2140169
:1040A000CEF2000108604FF0FF300F2101F03EFA20
:1040B0004EF21801CEF20001002008604EF210020C
:1040C000CEF20002072111600190FFE7019802B0D3
:1040D00080BD000080B5FDF717FA80BD80B594B0B3
:1040E00008A83021FCF77CF9002007900690059085
:1040F00004900390FFE70020029043F64000C4F2D2
:104100000200016841F080510160006800F08050B9
:1041100002900298FFE7FFE70020019047F20000BD
:10412000C4F20000016841F440410160006800F4FD
:10413000404001900198FFE7012008904FF4803043
:10414000099002200E904FF480010F9106211091EA
:10415000B421119112900420139008A8FDF7B8FC27
:1041600018B1FFE7FCF702FCFFE7FDF781FA18B191
:10417000FFE7FCF7FBFBFFE70F2003900220049012
:10418000002005904FF4A05006904FF48050079007
:1041900003A80521FDF7CCFA18B1FFE7FCF7E6FB11
:1041A000FFE714B080BD00004EF68851CEF200014A
:1041B000086840F4700008607047000083B0029007
:1041C000019102980068009002980021C4F2010158
:1041D000884225D0FFE70298B0F1804F20D0FFE75A
:1041E000029840F20041C4F20001884218D0FFE773
:1041F000029840F60001C4F20001884210D0FFE7A7
:10420000029840F60041C4F20001884208D0FFE75E
:10421000029840F20041C4F2010188420AD1FFE74E
:10422000009820F0700000900198416800980843C1
:104230000090FFE702980021C4F20101884255D0A6
:10424000FFE70298B0F1804F50D0FFE7029840F2AC
:104250000041C4F20001884248D0FFE7029840F6CE
:104260000001C4F20001884240D0FFE7029840F606
:104270000041C4F20001884238D0FFE7029840F2C2
:104280000041C4F20101884230D0FFE7029844F2B5
:104290000001C4F20101884228D0FFE7029844F2ED
:1042A0000041C4F20101884220D0FFE7029844F6A1
:1042B0000001C4F20101884218D0FFE7029841F6DC
:1042C0000001C4F20001884210D0FFE7029841F6D5
:1042D0000041C4F20001884208D0FFE7029842F290
:1042E0000001C4F2000188420AD1FFE7009820F4DF
:1042F000407000900198C168009808430090FFE763
:10430000009820F0800001994969084300900098C6
:1043100002990860019880680299C8620198006853
:104320000299886202980021C4F20101884208D0F3
:10433000FFE7029840F20041C4F20101884205D132
:10434000FFE70198006902990863FFE702990120DD
:10435000486103B07047000084B00390029101925D
:10436000029800F01F01012088400090009A0399F4
:10437000086A904308620198029901F01F0100FA4F
:1043800001F20399086A1043086204B07047000004
:1043900080B582B001900198806B009001980099DF
:1043A000496A88420DD1FFE70099012008770198FA
:1043B000C06928B9FFE70099012081F83E00FFE7B6
:1043C0003CE001980099896A88420DD1FFE7009985
:1043D000022008770198C06928B9FFE700990120F9
:1043E00081F83F00FFE728E001980099C96A8842F8
:1043F0000DD1FFE70099042008770198C06928B91A
:10440000FFE70099012081F84000FFE714E00198E0
:104410000099096B88420DD1FFE7009908200877C1
:104420000198C06928B9FFE70099012081F841008F
:10443000FFE700E0FFE7FFE7FFE7FFE70098FEF791
:10444000B1FB00990020087702B080BD80B582B032
:1044500001900198806B009001980099496A884208
:1044600004D1FFE700990120087721E00198009925
:10447000896A884204D1FFE700990220087716E094
:1044800001980099C96A884204D1FFE70099042085
:1044900008770BE001980099096B884204D1FFE787
:1044A00000990820087700E0FFE7FFE7FFE7FFE754
:1044B0000098FEF77FFB00990020087702B080BDCE
:1044C00080B582B001900198806B009001980099AE
:1044D000496A884207D1FFE70099012008770099CF
:1044E00081F83E0031E001980099896A884208D13C
:1044F000FFE70099022008770099012081F83F002A
:1045000022E001980099C96A884208D1FFE7009922
:10451000042008770099012081F8400013E00198F9
:104520000099096B884208D1FFE7009908200877B5
:104530000099012081F8410004E00099012081F8F0
:104540003D00FFE7FFE7FFE7FFE70098FEF7AAF966
:1045500000990020087702B080BD000085B004906B
:10456000039102920193049880680090009820F4CF
:104570007F40009003980299019A41EA0221014389
:1045800000980843009000980499886005B070472F
:1045900083B002900191029880680090009820F00A
:1045A0007000009001980099084340F007000090C7
:1045B00000980299886003B07047000085B00490AD
:1045C00003910499086A20F0010008620498006AC7
:1045D00001900498406800900498806902900298C5
:1045E00020F070000290029820F0030002900398DF
:1045F0000168029808430290019820F0020001909F
:104600000398816801980843019004980021C4F23E
:104610000101884208D0FFE7049840F20041C4F24B
:10462000010188420ED1FFE7019820F008000190B7
:104630000398C168019808430190019820F0040094
:104640000190FFE704980021C4F20101884208D0DC
:10465000FFE7049840F20041C4F20101884213D1FF
:10466000FFE7009820F480700090009820F400701C
:10467000009003984169009808430090039881696D
:10468000009808430090FFE700980499486002985A
:1046900004998861039840680499486301980499D3
:1046A000086205B07047000085B00490039104993A
:1046B000086A20F0100008620498006A01900498CB
:1046C00040680090049880690290029820F4E040CD
:1046D0000290029820F440700290039801680298BA
:1046E00040EA01200290019820F0200001900398F8
:1046F0008168019840EA0110019004980021C4F2F9
:104700000101884208D0FFE7049840F20041C4F25A
:10471000010188420FD1FFE7019820F0800001904D
:104720000398C168019840EA01100190019820F0B7
:1047300040000190FFE704980021C4F20101884283
:1047400008D0FFE7049840F20041C4F2010188421A
:1047500015D1FFE7009820F480600090009820F4C5
:104760000060009003984169009840EA8100009041
:1047700003988169009840EA81000090FFE7009863
:1047800004994860029804998861039840680499E4
:10479000886301980499086205B0704785B0049059
:1047A00003910499086A20F4807008620498006AF2
:1047B00001900498406800900498C06902900298A3
:1047C00020F070000290029820F0030002900398FD
:1047D0000168029808430290019820F4007001904B
:1047E00003988168019840EA012001900498002113
:1047F000C4F20101884208D0FFE7049840F200416A
:10480000C4F2010188420FD1FFE7019820F4006053
:1048100001900398C168019840EA01200190019835
:1048200020F480600190FFE704980021C4F20101A8
:10483000884208D0FFE7049840F20041C4F2010129
:10484000884215D1FFE7009820F48050009000982E
:1048500020F40050009003984169009840EA01104C
:10486000009003988169009840EA01100090FFE7EA
:1048700000980499486002980499C86103984068B8
:104880000499C86301980499086205B07047000054
:1048900085B0049003910499086A20F4805008625E
:1048A0000498006A01900498406800900498C069D8
:1048B0000290029820F4E0400290029820F44070A8
:1048C000029003980168029840EA01200290019842
:1048D00020F40050019003988168019840EA01306B
:1048E000019004980021C4F20101884208D0FFE73A
:1048F000049840F20041C4F2010188420BD1FFE765
:10490000009820F48040009003984169009840EAA4
:1049100081100090FFE7009804994860029804997C
:10492000C861039840680499086401980499086272
:1049300005B0704785B00490039102920498006A14
:1049400000900499086A20F00100086204988069C8
:104950000190019820F0F00001900299019840EA3E
:1049600001100190009820F00A000090039900982F
:10497000084300900198049988610098049908629E
:1049800005B0704785B00490039102920499086ABB
:1049900020F0100008620498806901900498006A71
:1049A0000090019820F4704001900299019840EA2B
:1049B00001300190009820F0A00000900399009829
:1049C00040EA0110009001980499886100980499C8
:1049D000086205B07047000080B584B003900020E5
:1049E00002900398806B0190019800684069C0B202
:1049F000C0090290019890F83D0021280AD1FFE7F4
:104A0000029838B1FFE701990020C884019800F0AE
:104A1000FBF8FFE7019800684069C0F3801002903E
:104A2000019890F83E0022280AD1FFE7029838B199
:104A3000FFE701990020C885019800F09BF8FFE787
:104A40000199086C40F0100008640198FEF7DCFB47
:104A500004B080BD80B586B005900598806B049049
:104A6000059800680068C00500285AD4FFE704993B
:104A70000020C885FFE7FFE70498006850E8030FAF
:104A800020F480700390FFE703990498026842E8DD
:104A900003100028F0D1FFE7FFE7FFE7FFE70498E6
:104AA000006850E8050F20F001000290FFE702992E
:104AB0000498026842E805100028F0D1FFE7FFE7FC
:104AC000FFE7FFE70498006850E8050F20F040007A
:104AD0000190FFE701990498026842E80510002858
:104AE000F0D1FFE7FFE70499202081F83E00049809
:104AF000006B012814D1FFE7FFE7FFE70498006887
:104B000050E8030F20F010000090FFE70099049890
:104B1000026842E803100028F0D1FFE7FFE7FFE753
:104B2000FFE70498006B012805D1FFE70498818D09
:104B3000FEF7FEFA03E00498FEF772FCFFE706B00A
:104B400080BD000080B582B001900198806B00901C
:104B50000098006B012806D1FFE70098818D490875
:104B6000FEF7E6FA03E00098FEF75EFCFFE702B00E
:104B700080BD000084B00390FFE7FFE70398006862
:104B800050E8030F20F490700290FFE70299039819
:104B9000026842E803100028F0D1FFE7FFE7FFE7D3
:104BA000FFE70398006850E8050F20F0010001902E
:104BB000FFE701990398026842E805100028F0D148
:104BC000FFE7FFE70398006B012814D1FFE7FFE739
:104BD000FFE70398006850E8030F20F010000090F2
:104BE000FFE700990398026842E803100028F0D11B
:104BF000FFE7FFE7FFE70399202081F83E000399D4
:104C00000020086304B0704782B00190FFE7FFE71F
:104C10000198006850E8030F20F0C0000090FFE703
:104C200000990198026842E803100028F0D1FFE7DC
:104C3000FFE70199202081F83D0002B07047000095
:104C400080B586B0059005980068006920F4405052
:104C5000059A1168D26810430861059988680B6944
:104C60004A69C969184310430843049005980068CD
:104C7000C06849F20C6188430499084305990968A2
:104C8000C86005980068406920F44070059A116872
:104C90009269104348610598006841F20001C4F22E
:104CA0000101884209D0FFE70598006841F2004100
:104CB000C4F20101884204D1FFE7FCF783FE0390B0
:104CC00003E0FCF76DFE0390FFE70598C069B0F5BF
:104CD000004F29D1FFE703981921A0FB0101059A94
:104CE0001368029353685A00DB0FFBF7CFFA02995F
:104CF000864648F21F53C5F2EB13AEFB0320420970
:104D000010014FF0640C02FB1CEC322202EBCC02CF
:104D1000A2FB0332F82303EA521300EB4300C2F371
:104D200042121044886026E003981921A0FB01017B
:104D3000059A1368019353689A009B0FFBF7A6FA34
:104D40000199844648F21F52C5F2EB12ACFB0230C7
:104D50004309642003FB10CC322000EB0C10A0FBB5
:104D60000202F02000EA521000EB0310C2F34312DB
:104D700010448860FFE706B080BD000080B588B0B1
:104D800007900691ADF81620069807998862BDF83D
:104D9000160007998885079900200864079A222140
:104DA00082F83E1007998A6B44F65521C0F600013F
:104DB000D16307998A6B44F64531C0F6000111644E
:104DC00007998A6B44F6D911C0F60001D16407999E
:104DD000896B086506A8049007980168806B043108
:104DE000049A1268BDF81630FCF7F4F8FFE70020CB
:104DF000039007980068006803900798006840686F
:104E000003900398FFE7FFE70799002081F83C0033
:104E1000FFE707980069A0B1FFE7FFE7FFE7079802
:104E2000006850E8030F40F480700290FFE7029999
:104E30000798026842E803100028F0D1FFE7FFE777
:104E4000FFE7FFE7FFE70798006850E8050F40F02D
:104E500001000190FFE701990798026842E80510F8
:104E60000028F0D1FFE7FFE7FFE7FFE707980068BA
:104E700050E8050F40F040000090FFE700990798C8
:104E8000026842E805100028F0D1FFE7FFE70020A4
:104E900008B080BD80B582B040F68430C2F2000018
:104EA0000068006800F010010020B0EB111F1CD05A
:104EB000FFE740F68430C2F20000009002686FF015
:104EC00010011160FEF73AF940F6E530C2F2000039
:104ED000019040F6CE31C2F2000100F0A7FB00982D
:104EE00001991222FEF760FAFFE702B080BD0000D0
:104EF000FFE7FEE780B588B040F6F420C2F200007C
:104F0000019045F28872C0F60002059200214FF42C
:104F1000FA730693FDF752FE64200790FCF7BCF885
:104F20000198059A069B04210291FDF747FE079818
:104F3000FCF7B2F80198059A069B0821FDF73EFEA2
:104F40000798FCF7A9F80198059A069B0C21049193
:104F5000FDF734FE0798FCF79FF80299059A069B27
:104F600040F63C30C2F200000390FDF727FE0798A0
:104F7000FCF792F803980499059A069BFDF71EFE2C
:104F80000798FCF789F808B080BD000080B540F2B2
:104F90007C70C2F200000068012840F0C081FFE789
:104FA00040F28470C2F200000068B0F5E07F71D179
:104FB000FFE740F28471C2F200010020086040F275
:104FC0000000C2F20000007840B9FFE740F6F4208C
:104FD000C2F200000021FDF7DFFF54E040F20000C4
:104FE000C2F200000078012808D1FFE740F6F42063
:104FF000C2F200000421FDF7CFFF43E040F20000C1
:10500000C2F200000078022808D1FFE740F6F42041
:10501000C2F200000821FDF7BFFF32E040F20000BD
:10502000C2F200000078032808D1FFE740F6F42020
:10503000C2F200000C21FDF7AFFF21E040F20000BA
:10504000C2F200000078042808D1FFE740F63C30A7
:10505000C2F200000421FDF79FFF10E040F20000C3
:10506000C2F200000078052808D1FFE740F63C3086
:10507000C2F200000C21FDF78FFFFFE7FFE7FFE71B
:10508000FFE7FFE7FFE740F27C71C2F2000100207A
:10509000086044E140F28471C2F200010868013006
:1050A000086040F28070C2F200000068002840F002
:1050B0009B80FFE740F20000C2F20000007868B970
:1050C000FFE740F6F420C2F2000040F28872C2F21C
:1050D000000200211923FDF771FD6DE040F2000090
:1050E000C2F20000007801280DD1FFE740F6F4205D
:1050F000C2F2000040F28872C2F2000204211923B9
:10510000FDF75CFD57E040F20000C2F200000078BD
:1051100002280DD1FFE740F6F420C2F2000040F271
:105120008872C2F2000208211923FDF747FD41E011
:1051300040F20000C2F20000007803280DD1FFE722
:1051400040F6F420C2F2000040F28872C2F200027F
:105150000C211923FDF732FD2BE040F20000C2F2D2
:105160000000007804280DD1FFE740F63C30C2F281
:10517000000040F28872C2F2000204211923FDF7F8
:105180001DFD15E040F20000C2F200000078052885
:105190000DD1FFE740F63C30C2F2000040F28872C9
:1051A000C2F200020C211923FDF708FDFFE7FFE71B
:1051B000FFE7FFE7FFE7FFE740F28470C2F200007D
:1051C000016840F27C00C2F2000050F8210040F279
:1051D000EC71C2F2000100F03FF940F28071C2F2BE
:1051E00000010120086099E040F20000C2F20000D6
:1051F000007868B9FFE740F6F420C2F2000040F200
:10520000EC72C2F2000200211923FDF7D7FC6DE019
:1052100040F20000C2F20000007801280DD1FFE743
:1052200040F6F420C2F2000040F2EC72C2F200023A
:1052300004211923FDF7C2FC57E040F20000C2F23E
:105240000000007802280DD1FFE740F6F420C2F2FA
:10525000000040F2EC72C2F2000208211923FDF7AF
:10526000ADFC41E040F20000C2F2000000780328EB
:105270000DD1FFE740F6F420C2F2000040F2EC72DC
:10528000C2F200020C211923FDF798FC2BE040F23A
:105290000000C2F20000007804280DD1FFE740F6BC
:1052A0003C30C2F2000040F2EC72C2F20002042173
:1052B0001923FDF783FC15E040F20000C2F2000064
:1052C000007805280DD1FFE740F63C30C2F200001F
:1052D00040F2EC72C2F200020C211923FDF76EFCC1
:1052E000FFE7FFE7FFE7FFE7FFE7FFE740F2847034
:1052F000C2F20000016840F27C00C2F2000050F8E7
:10530000210040F28871C2F2000100F0A5F840F2DD
:105310008071C2F2000100200860FFE7FFE780BD56
:1053200080B540F20000C2F20000007870B9FFE7DB
:1053300040F6F420C2F2000045F28872C0F6000286
:1053400000214FF4FA73FDF739FC72E040F20000DF
:10535000C2F20000007801280ED1FFE740F6F420E9
:10536000C2F2000045F28872C0F6000204214FF438
:10537000FA73FDF723FC5BE040F20000C2F200008C
:10538000007802280ED1FFE740F6F420C2F20000B8
:1053900045F28872C0F6000208214FF4FA73FDF757
:1053A0000DFC44E040F20000C2F200000078032847
:1053B0000ED1FFE740F6F420C2F2000045F28872F9
:1053C000C0F600020C214FF4FA73FDF7F7FB2DE055
:1053D00040F20000C2F20000007804280ED1FFE77E
:1053E00040F63C30C2F2000045F28872C0F600027E
:1053F00004214FF4FA73FDF7E1FB16E040F20000E0
:10540000C2F20000007805280ED1FFE740F63C30DC
:10541000C2F2000045F28872C0F600020C214FF47F
:10542000FA73FDF7CBFBFFE7FFE7FFE7FFE7FFE7D7
:10543000FFE740F27C00C2F20000006840F2887191
:10544000C2F2000100F008F840F27C71C2F20001E3
:105450000120086080BD000086B005900491059889
:10546000039003A8029000208DF807008DF8060035
:105470008DF80500029909788DF805100299497890
:105480008DF80610029989788DF807109DF806109E
:1054900009049DF8072041EA02219DF805201144E6
:1054A00003910090FFE7009817281ADCFFE79DF8AA
:1054B0000E000006002806D5FFE70499009A962002
:1054C00041F8220005E00499009A3B2041F82200AF
:1054D000FFE7039840000390FFE700980130009039
:1054E000E1E704990020086606B0704781B08DF8A6
:1054F00003009DF9030000280ED4FFE79DF9031077
:1055000001F01F02012090404A094EF20011CEF234
:10551000000141F82200FFE701B070474EF60C5041
:10552000CEF200000068C0F30220704782B08DF810
:10553000070000919DF9070000280AD4FFE70098B2
:1055400000019DF907104EF20042CEF2000288548D
:105550000BE0009800019DF8071001F00F014EF6D6
:105560001452CEF200028854FFE702B070470000E8
:1055700083B00290029800F0070000904EF60C51A4
:10558000CEF200010868019001984FF6FF0210402A
:1055900001900198009A40EA02200022C0F2FA52DB
:1055A000104301900198086003B0704740F6CE3078
:1055B000C2F200007047000080B582B00020019068
:1055C000FBF7B0FFFEF78AFDFDF78AFFFDF732FF1C
:1055D000FEF7C0F8FEF70EFAFEF770F900F014F8C7
:1055E000FFF7E4FF40F27801C2F200010860FBF728
:1055F000C5F9FFE7FEF75EFAFBF758F8FAF756FF32
:105600000120FBF749FDF5E780B540F68430C2F292
:1056100000000268D16841F01001D16040F6E53128
:10562000C2F200011222FDF7BFFE80BD82B00190E0
:105630000091019818B1FFE7009808B9FFE783E0EF
:10564000019800780199497840EA01206FF3DF2042
:105650000099088001984078C0080199897840EA4B
:1056600041106FF3DF20009948800198807880090D
:105670000199C97840EA81000199097940EA8120BD
:105680006FF3DF2000998880019800794008019924
:10569000497940EAC1106FF3DF200099C880019872
:1056A0004079C0F30110009988720198407980090F
:1056B0000099C872019880790199C97940EA01205E
:1056C000009988810198007A0199497A40EA01207D
:1056D0000099C8810198807A0199C97A40EA01202D
:1056E000009908820198007B009988740198407B9A
:1056F0000099C8740198807B0199C97B40EA012018
:10570000009988820198007C0199497C40EA012037
:105710000099088100990888A0F5806008800099A8
:105720004888A0F58060488000998888A0F580604E
:1057300088800099C888A0F58060C8800099088991
:10574000A0F580600881FFE702B07047F1EE100A13
:105750004FF6FF71C0F2C03120EA010040F0407006
:10576000E1EE100A70470000000000000000010296
:1057700003040607080900000000010203040006F4
:1057800010160006101600000000000000000000C7
:105790000000000000000000000000000000000009
:1057A00000000000000000000000000000000000F9
:1057B00000000000000000000000000000000000E9
:1057C00000000000000000000000000000000000D9
:105F50000000000000000000785F00080000002042
:105F600010000000E8010008885F00081000002011
:105F7000F011000004020008060000000024F400F4
:085F8000010100001000000007
:04000005080001AD41
:00000001FF
